:10000000C0C50000D0C50000CEC50000CCC50000B2
:10001000CAC500000C941430C6C500000C946D0EC7
:10002000C2C50000C0C500000C94CD250C94F82F6B
:100030000C9406300C94A725B6C50000B4C500008A
:100040000C94D22FB0C50000AEC50000ACC50000B6
:10005000AAC500000C946E0EA6C50000A4C5000041
:10006000A2C50000A0C50000E62FF72F903009F4CC
:100070009395E5B8C4B8B6EFB0937A00A5E0A09325
:100080007B00A8E0A093810010928000AFEFA093C6
:100090008500A0938400A6E0A093360010928B0008
:1000A00010928A00B3E0AFE3A91B51E0392F33303F
:1000B0002AF0A05CBC4F53953350F9CFB093890020
:1000C000A0938800A0917A00A4FFFCCFB6EBB09378
:1000D0007A00A2E0A0936F00A9E0A093810062E003
:1000E000A0E0A0937B00A1E0A09353008895E5B821
:1000F000C4B884FF1AC0A8E10000AA95F1F7EF93F5
:10010000FF93E7B1F8B1A4E0C2FCA2E0C0FCA1E01B
:10011000BF2FBA2BAE2BB8B904B9A7B9E7B9F8B954
:10012000FF91EF910BC00C947300ACE10000000054
:10013000AA95F1F725B9E5B8000004B9A0918400AB
:10014000A0918500B0918900A395AB1760F7A091AD
:100150007A00A4FFF3CFB6EBB0937A006A9571F7FB
:100160006091780070917900308186FD630F619312
:10017000308186FD731F80FF7193652F4A9579F753
:1001800010926F0010928100B6E0B0937A0008954B
:10019000C801BF01B60118000720080808F80000D0
:1001A000002060A03FA06020020202FF02020210B5
:1001B00010101F0000000708FFDBBDB5B5CBFF071F
:1001C00008FF9BADADADB3FF0708FFFFBB81BFFFCD
:1001D000FF10100508F878385888091003081C3EED
:1001E0007F0D080710FF818181F1E1C1FF40404090
:1001F0004743410D080110FFFF11080310F1E1C151
:100200004743410E0008202121122060E0E0E0FE7B
:10021000FE0402010001037F7F21C2C4C4C04094D8
:10022000840007030102040E080210FEFE7F7F0017
:10023000000000110005202060E0E0E00201000164
:1002400003C2C4C4C0400703010204010410010238
:10025000044E6F742063616C69627261746564211D
:1002600000B903870358032E030703E402C302A463
:100270000288020000140029003E0053006900803B
:10028000009700AE00C600DF00F80012012D014902
:100290000165018201A001BE01DE01FF01210244CE
:1002A0000268028E02B502DE02090335036403947C
:1002B00003C803FE0337047304B404F9044305932D
:1002C00005EA054906B3062907AE074808FF08DE18
:1002D00009FD0A930C480F991B0000000000000064
:1002E0000000000000000000001E212121120080FB
:1002F0007F0000007E4A4A4A34000000000000FCF3
:100300004020100804020100000001010101010168
:10031000010101010101017F0488D0E0F0F8000033
:1003200000000000000000000000000000000000CD
:10033000FC94948400000102FC0000000000000016
:1003400000000000001E21212112E0C0804020108A
:100350000F000000C020202040000000FC00009E94
:100360009E0403030303020000002020232425250C
:10037000232020203F00007B7B2142840480C0009A
:1003800000000000000000000000000000FC949449
:100390008400040607070708F000000000000000C2
:1003A000000000000000803F2121120C000000002E
:1003B000FF000000F0084848C80000FE0000E78188
:1003C0008181C1E1F1818181010020202021212151
:1003D0002020203F0000F340404041434740407F01
:1003E000C000000000000000000000000000004805
:1003F0009494946400000000FF00000000000000DE
:100400000000000000000000003F2121120C00004D
:10041000FF000000F0084848D0000000000000FE87
:10042000FE04040404040404070008080809090978
:1004300008087F3E1C08087F7F20202020202020E5
:10044000E0000000000000000000000000000000CC
:100450000048949494640000FF0000000000000035
:1004600000000000FF003C0A090A3C002231292953
:1004700026000082868E9EBEFEFEBEDEEFF6FAFEEF
:10048000FEFAF2E2C2820000000808080402798441
:10049000A4A46800FF0000000000000000000000AD
:1004A000000000000000000000000000FF0000F05D
:1004B000282428F0001008FC0000000000000000C4
:1004C000000000003C0A090A3C00FF000000000098
:1004D00000000000000000000000000000040C1CF0
:1004E0003C7CFF7C3C1C0C040000000000009EA132
:1004F000A9A99A804323130B0703FF0303030303F4
:1005000003000000000000000000000078848484E4
:100510004800FF000000000000000000F00804E2B6
:10052000110909090909090909091121C204081059
:10053000E000000001020404070000000000804009
:10054000201088442310080403000000000000006D
:1005500000000000FE0100FC02010000000000009D
:100560000000000000000000000000007949497907
:1005700000000000000000000000F8FC0242BC186F
:10058000101F0F00040703F0F80C0C0CF8F00C0D12
:100590000F000F0D0C00F0F00000F0F0101F0F0224
:1005A00004030700183C66663C18000000000000C9
:1005B000000000000000000000000000000000003B
:1005C000001EFFFF1E000000000C0C000000160EB5
:1005D0000000160E0000000000000010FCFC10FCE3
:1005E000FC1001070701070701387C44FE448C1802
:1005F000060E081F080F07181880C0603018060381
:1006000001000006068CDE7262D21E8C03070C0C01
:100610000603020000002C1C000000000000000087
:10062000000000E0F80C0600000001070C180000B4
:1006300000060CF8E0000000180C0701004050F024
:10064000E0E0F0500001010000010100C0C0F0F046
:10065000C0C0000000030300000000000000000014
:100660000000101E0E0000C0C0C0C0C0C0C000000E
:100670000000000000000000000000000000000C6E
:100680000C0000000080C06030180603010000006C
:1006900000F8FC864226FCF803070C080C07030050
:1006A0000CFEFE00000000080F0F0800000C0E8278
:1006B000C2623E1C0E0F0908080C0C04064242429E
:1006C000FEBC040C0808080F07C0E0B098FCFE80D0
:1006D000000000000F0F003E3E222222E2C2040C66
:1006E0000808080F07F8FC262222E2C0070F0808B6
:1006F000080F07060682C2623E1E00000F0F0000B0
:1007000000DCFE222222FEDC070F0808080F073C4F
:100710007E424242FEFC000808080C07030000006D
:1007200030300000000000060600000000003030FD
:100730000000000010160E00000040E0B0180C048D
:10074000000000010306040090909090909000003B
:10075000000000000000040C18B0E0400004060394
:10076000010000000C0EC2E23E1C0000000D0D0056
:1007700000F80462929294F803040808080000F854
:10078000FC848284FCF80F0F0000000F0FFEFE4275
:100790004242FEBC0F0F0808080F07F8FC060202D1
:1007A000060C03070C08080C06FEFE020206FCF805
:1007B0000F0F08080C0703FEFE42424202020F0F11
:1007C0000808080808FEFE42424202020F0F00001D
:1007D000000000F8FC060282868C03070C0808075C
:1007E0000FFEFE404040FEFE0F0F0000000F0F0006
:1007F0000002FEFE02000000080F0F0800000000CB
:1008000000FEFE00060E08080F0700FEFEB0180CE2
:1008100006020F0F0103060C08FEFE000000000098
:100820000F0F0808080808FEFC30C030FCFE0F0F50
:100830000001000F0FFEFE38E080FEFE0F0F0000EB
:10084000010F0FF8FC060206FCF803070C080C0762
:1008500003FEFE4242427E3C0F0F0000000000F803
:10086000FC060206FCF803070C090A050BFEFE82D3
:100870008282FE7C0F0F0103060C081C3E2262429E
:10088000C28406080808080F07000606FEFE0606D2
:100890000000000F0F0000FEFE000000FEFE070F2C
:1008A0000808080F07FEFE000000FEFE0103060C0C
:1008B000060301FEFE00C000FEFE03070C030C074A
:1008C00003061EF8E0F81E060C0F0300030F0C00D1
:1008D0003E7EC0C07E3E0000000F0F00000282C2BC
:1008E00062321E0E0F0F08080808080000FEFE0204
:1008F000020000000F0F0808001C3870E0C08000E4
:100900000000000001030700000202FEFE000000DC
:1009100008080F0F0004060301030604000000008E
:100920000000000000000000000010101010101067
:10093000100000001C2C000000000000000000005F
:10094000909090B0E0C0070F0808040F0FFEFE4023
:100950002020E0C00F0F0808080F07C0E03010107B
:10096000302003070C08080C06C0E0202040FEFEE3
:10097000070F0808040F0FC0E0B090B0E0C00307F5
:100980000C08080C0420FCFE22260C00000F0F00AF
:10099000000000E0F0101020F0F0091B12121A1FE6
:1009A0000FFEFE402020E0C00F0F0000000F0F00E0
:1009B0000010F6F600000000000F0F00000000001D
:1009C0000000F6F6000C1C10101F0FFEFEC0603079
:1009D00010000F0F0103060C08000002FEFE0000CD
:1009E0000000000F0F0800F0E010E010F0E00F0F23
:1009F0000007000F0FF0E0101010F0E00F0F0000E4
:100A0000000F0FC0E0301030E0C003070C080C07E7
:100A100003F0E0101010F0E01F1F0404040703E0CF
:100A2000F0101010E0F003070404041F1FF0E03082
:100A3000301070600F0F00000000002070D0901088
:100A40007060060E0809090F061010FCFE10000069
:100A50000000070F080C06F0F0000000F0F0070F90
:100A6000080808070F00F0F00000F0F00003070C82
:100A70000C0703F0F0008000F0F003070E030E07F0
:100A8000033070C080C070300C0E0301030E0CF0F8
:100A9000F0000000F0F0091B1212121F0F3030108E
:100AA00090D070300C0E0B09080C0C004040FCBEBE
:100AB0000202000000070F0808000000FEFE000010
:100AC0000000001F1F0000000202BEFC40400008A2
:100AD000080F0700000406020604060200000000DA
:100AE000000000E0F0180C18F0E001010101010124
:100AF00001C0F818181818F8C000070606060607FF
:100B000000FCF8F0E0C0FCFCC00F070301000F0F71
:100B100000C0FCFCC0E0F0F8FC000F0F0001030770
:100B20000FC0FCFC0000FCFCC0000F0F00000F0F0A
:100B300000F8F81818181818180707060606060609
:100B400006181818181818F8F806060606060607F4
:100B500007C0C0C0C0C0C0C0C0000000000000008E
:100B600000C0C000806080008000030C0D020D0CEE
:100B70000D60800080608000C0020D0C0D020D0C25
:100B8000030011241FBECFEFD8E0DEBFCDBF21E0B0
:100B9000A0E0B1E001C01D92A63CB207E1F70E94BF
:100BA00009130C9464382CCA5D98559A80FD599AA3
:100BB00080FF5998519A539A5A9867FD5B9A67FF3C
:100BC0005B985A9A5A9866FD5B9A66FF5B985A9AA8
:100BD0005A9865FD5B9A65FF5B985A9A5A9864FD2E
:100BE0005B9A64FF5B985A9A5A9863FD5B9A63FF1D
:100BF0005B985A9A5A9862FD5B9A62FF5B985A9A80
:100C00005A9861FD5B9A61FF5B985A9A5A9860FD09
:100C10005B9A60FF5B985A9A5D9A5A985B98089520
:100C200097FF09C08F939F938DE29AD59F918F91E3
:100C3000909581959F4F62E271E04AE050E00E94FA
:100C40000338DDC5EDDF01C0EBDF80E289C58DE251
:100C500087C58DE385C5EF92FF920F931F93182FE1
:100C6000062FF42E82E691E0E2D5EE24E0913D01DC
:100C7000F0913E018685E81611F4812F09C0848524
:100C8000E81611F4802F04C08585E81611F48F2D25
:100C900067D5E3948E2D833049F71F910F91FF9014
:100CA000EF900895EF92FF920F931F93182F062F46
:100CB000F42E80E07BD4C9DF88E691E0B8D54F2DD3
:100CC000602F812FC8DF1F910F91FF90EF90089543
:100CD000682F80E092E0662309F491E0623009F425
:100CE00081E008950F93082FEEEAF1E0880F880F56
:100CF000E80FF11D608171818281938164367105F5
:100D00008105910568F42091200127FD09C0802FFD
:100D1000DFDF692FF0D16EEF23E04DE1B6D604C0DE
:100D20004FEF04E02DE1C8D590DF0F910895863094
:100D300058F4EDE9F1E0E80FF11DE80FF11D8081B5
:100D4000918163E0ADD681CF08951F93182F8091D4
:100D50007601882319F079DF80E002D58DD389E50B
:100D600091E065D5812F82958F70E1DF812F8F70A3
:100D7000DEDF1F9108958091060182958F7018D053
:100D80008091060183701AD080910601DECFE1E9DF
:100D9000F1E0E80FF11D0895CF93F9DF9081C6814E
:100DA000C91710F405D001C012D04FDFCF910895BC
:100DB000EEDF8F93808120D58F9100C08F9387E2E3
:100DC00091E035D58F91E3DF868116C50895DFDF89
:100DD0008F93868111D58F9100C08F9383E291E02C
:100DE00026D58F91D4DF808107C5089503D002D026
:100DF00001D000D000D003D002D001D000D000D06C
:100E000003D002D001D000D000D0A89503D002D0EA
:100E100001D000D000D003D002D001D000D000D04B
:100E200003D002D001D000D000D003D002D001D036
:100E300000D00000089582E090E0893C28F0885CB2
:100E400048EC849FC0011124009709F40895409153
:100E50008100477019F0D9DF0197F6CF81309105F5
:100E600019F002975EE303C057E180E090E0409103
:100E7000B200450F4093B30042E04093700047E05A
:100E800043BF889546E043BF10927000A895DCCF21
:100E90008F9384E0D1DF06C08F93CDDF03C08F93A3
:100EA00081E0CADF8F911F93182F106410937C008C
:100EB000E12FE07880912D01E81759F0E0932D01A2
:100EC000AEDF8EE980937A0083E083BF889582E06D
:100ED00083BF20E030E0A901E0E01FC08EE98093ED
:100EE0007A0083E083BF889582E083BF60917800B9
:100EF00070917900260F371F411D511DE43061F4B8
:100F000080912F01803041F084E02030380720F4B8
:100F100017FD02C01068CACFEF5F80912C01E8175F
:100F2000E8F2609130017091310117FF04C06091C7
:100F30002E0170912F0180E090E00E9406372FEF84
:100F400033E040E050E00E944837B901CA012091E7
:100F50002C0130E040E050E00E944837C9011F9169
:100F600008959B01281B390B50F0C9010895BC015D
:100F700080913001909131016817790718F4861B30
:100F8000970B089580E090E0089588E393E00E9435
:100F90003E382091340130913501280F391F2093BC
:100FA00016013093170183E0283E380720F0C9016D
:100FB000885E934002C080E090E062E370E00E94AF
:100FC0002137683008F067E0E1E6F2E0E60FF11D56
:100FD000E60FF11D459155912591359162E3681B0E
:100FE000421B530B649FC001659F900D11244996CD
:100FF00062E370E00E942137620F731F70937A01E1
:10100000609379018AE393E00E943638992787FD3F
:1010100090956091340170913501860F971F9093E0
:101020002F0180932E019093750180937401089590
:101030000F9221E08C32920710F48CE291E08C52F6
:10104000914069E170E00E94213799E16B3210F024
:10105000982F6BE2981BE5EBF2E0E60FF11DE60F2F
:10106000F11D9F93CF010E943638482F3196CF0152
:101070000E943638582F3196CF010E943638282FDB
:101080003196CF010E943638382F6F91421B530B97
:10109000649FC001659F900D11240C9669E170E07A
:1010A0000E942137620F731FCB010F900895CF93D9
:1010B000DF9324E130E0B9010E942137DC01E3E74E
:1010C000F2E0E60FF71FE60FF71FC591D5914591A6
:1010D00055914C1B5D0B4A9FC0014B9F900D5A9F31
:1010E000900D1124B9010E9421376C0F7D1FCB0197
:1010F000DF91CF910895AEE1B0E0E1E8F8E00C9423
:10110000AB37662EB82E860F898320911A012830BE
:1011100059F520917F0130918001409181015091DA
:10112000820157FD15C010918E0109C0CA01B90195
:101130002AE0312D412D512D0E9448371F5F173F66
:10114000ACF391F4243160E036074105510518F401
:101150008FEF9FEF42C1173F39F480E028178DE7EA
:1011600038074105410510F020E03DE72C8B3D8B11
:1011700026EDA22EEEE4F2E0E60DF11D85918060F1
:101180008E87EEE4F2E0EB0DF11D859180608F8794
:10119000EBE4F2E0E60DF11D7590EBE4F2E0EB0D0F
:1011A000F11DC59090EC692AB92A81E0E82EF12C56
:1011B000012D112D8E831F82188619861A861B8693
:1011C0001C861D86188E198E1B8E1A8E0E94012277
:1011D00080E088B960927C0022DE3F8537B975B81F
:1011E00074B852E05A95F1F70000000014B815B831
:1011F000DD243E8537B975B874B860927C00A89537
:10120000A0927A0080917A0086FDFCCF2090780031
:1012100030907900B0927C004C2DE3D02091780082
:1012200030917900288B398B3F8537B9C5B8C4B860
:10123000A895B0927C00A0927A0080917A0086FDF9
:10124000FCCF609178007091790060927C00472D0E
:10125000C8D0409178005091790014B8CB01820D2C
:10126000931DE80EF91E011D111DEA82FB820C83FD
:101270001D8388899989840F951F2E813F816885F8
:101280007985280F391F611D711D2E833F83688763
:10129000798722E32417150648F075B874B8C9DDBC
:1012A00014B815B8888D8395888F07C0483E73E0C1
:1012B000570718F08A8D83958A8F8889998928170E
:1012C000190658F03E8537B9C5B8C4B8B2DD14B8B0
:1012D00015B8898D8395898F07C0883E73E097077D
:1012E00018F08B8D83958B8FD3945D2D5F3F49F0E4
:1012F0005F3731F45C2D550FC50E572D550F750E08
:1013000078CF4090390150903A01440C551C92011D
:10131000E4E0240D351DEA95E1F729015701680144
:101320006E807F808884998420911A012830C1F4CE
:101330006C897D89812D912D655070408040904051
:101340009B01AC010E9406379B01AC0160E779E785
:1013500086E190E00E944837621A730A840A950A6F
:10136000A614B704C804D90428F46A187B088C08AA
:101370009D0803C0662477244301B20180E090E019
:101380009301A4010E9406379501A6010E944837E7
:1013900080E193E07981870F911D0E943638682E95
:1013A000C90160E170E00E942137260F371FC90193
:1013B0006816190618F4861991090FC08C5E9F4FA4
:1013C0008615910540F48C899D89843981E19807BF
:1013D00010F00E94B012812D912D6E96E2E10C94D6
:1013E000C737109281001092800010926F00109207
:1013F0008B0010928A0057E056BB5FEF5093850038
:101400005093840055E050937B0056EB50937A0044
:1014100051E05093810058E25A95F1F7000045B928
:1014200044B955E05A95F1F7000014B815B8109278
:10143000810080917A0084FFFCCF80937A00089528
:10144000CF93C82F1C161CF400DCC150FBCFCF91EA
:10145000089560933C018093030186958093AD01CC
:10146000660F660F660F6093040108951092AD0138
:1014700060E080E0EECF089581E08093AD0160E010
:1014800082E0E7CF089582E08093AD0160E084E0E0
:10149000E0CF089583E08093AD0160E086E0D9CF8E
:1014A000089580913C01809301018091AD0180936A
:1014B000020108958091020160910101880FC9CF56
:1014C0000895682F80E070CB08958EEAFADF85EAF0
:1014D000F8CF0895CF93DF93C0E080E1F2DF80E0A2
:1014E000F0DF8C2F806BEDDFD4E860E081E05CDB27
:1014F000D150D9F7CF5FC83081F7B8DFDF91CF91F6
:10150000089558985A985B985D98509A529A539AB1
:10151000559A8ADC5D9A559A5998519A84E18CDCE7
:10152000589A84E189DC8EEACCDF82EECADF82EA57
:10153000C8DF80EAC6DF80ECC4DF8FE2C2DF84E26E
:10154000C0DF81E8BEDF8FE093E00E9436388F7302
:10155000B8DF80E4B6DF84EAB4DF86EAB2DFBADF60
:101560008FEAAFDF60E080E074CF089590913C0196
:1015700080E1891B65CF0895CF93C82FF7DF809155
:10158000AD018F5F8093AD01843038F083E08093AC
:10159000AD0181E080933F0102C010923F01809134
:1015A000AD016C2F880F55DFCF910895E5DF6CC337
:1015B00008955CDFDBDF5ACF08955EDFD7DF5CCFB5
:1015C0000895582F28E030E090E841E080E0652F52
:1015D000642309F0892B440F969521503109B9F7FE
:1015E0000895A0E0B0E0E7EFFAE00C94AD37EC012D
:1015F00010E0C801860F911D813891050CF066C07E
:10160000F12CE40EF11C31E4E316F1040CF05EC0A1
:10161000742E76947694769481E0E81AF10893E03B
:10162000F594E7949A95E1F7E22FE2706E2E21FF90
:101630000DC0C701992787199109809FA001819F3B
:10164000500D909F500D1124C40FD51FF7E0FE15CB
:1016500010F487E0E82E862F82958F708061482EE7
:101660006F70F62E2170522EE71458F1872D806B83
:1016700028DF842D26DF8F2D24DF5E01A00EB11E12
:10168000C5014E01C817D907A1F09C0121503109AD
:101690006901552011F0F90101C0F4018491611034
:1016A00090DF682F81E080DAC601FFEF8F1A9F0A72
:1016B000E9CF662019F05E01A01AB10A7394E50122
:1016C000D3CF809103018F70806BFBDECDB7DEB787
:1016D000E0E10C94C937EF920F93482F282F2F7316
:1016E00080E6289F90011124C90187529D4F46FF33
:1016F00002C028E001C028E42093050147FF03C091
:101700001092000108C020E2209300012091050101
:101710002D5E2093050120E2E22E08E120E04091B9
:101720000001609105015DDF0F91EF900895EF9248
:101730000F93262FFC0164913196449131960491C8
:101740003196E49030910001430F30910501630F11
:10175000049647DF0F91EF90089560E0E8CF089579
:10176000EF920F9390913C019F5F90933C014091C9
:101770000301282F30E0440F440F440F8C3098F4BD
:10178000C90134E0880F991F3A95E1F750E1E52E41
:1017900008E020E0609104018F50954F22DF809196
:1017A0000401885F23C02C5131095EE0529FC001C3
:1017B000539F900D112420E1E22E07E020E060917C
:1017C000040187589A4F0DDF60910401695F6093AF
:1017D000040140910301440F440F440F01E020E055
:1017E00081EB95E0FEDE809104018F5F8093040120
:1017F000A8950F91EF9008958F5CB2CF0895CF9385
:10180000DF93EC018991882311F0AADFFBCFDF91F0
:10181000CF910895CF93DF93EC01FE01849188234B
:1018200019F09EDF2196F9CFDF91CF910895CF93E4
:10183000DF93EC01CE010E943638882319F090DF47
:101840002196F8CFDF91CF910895EF920F93FC018D
:1018500004913196E4900296C4DE0F91EF900895C2
:101860000F9380E891E0E3DF40918D014D3F64F4F8
:1018700060917B0170917C0180917D0190917E014E
:1018800003E026E419D002C08FE36ADF0F910895C8
:10189000909119019F70923071F488DE84E690E097
:1018A000C6DFE0913D01F0913E0122E04DE16FEF96
:1018B00084819581EAC00895AEE0B0E0E2E6FCE004
:1018C0000C94AB37142F622E702E6B017C010F70BD
:1018D00080E389838A838B838C838D838E83F7FE59
:1018E0000AC0B5D9F094E094D094C094C11CD11C26
:1018F000E11CF11C04C075FE02C08BE231DF033035
:1019000071F0043099F00530C1F00630F1F0073085
:1019100021F174E6872E912CA12CB12C25C068EE04
:10192000862E63E0962EA12CB12C1EC050E1852E90
:1019300057E2952EA12CB12C17C040EA842E46E820
:10194000942EAA24A394B12C0FC030E4832E32E449
:10195000932E3FE0A32EB12C07C020E8822E26E96B
:10196000922E28E9A22EB12C9AE0292E312C412C5E
:10197000512CC814D904EA04FB0470F0C701B60165
:101980006B5F7F4F8F4F9F4FA20191010E9448379D
:1019900069017A011F5FEDCF81E1810F9BEA899F89
:1019A000812D1124A82EA69486E0811B899F112DDC
:1019B00011241695912F990F190F811B182F4E0185
:1019C00087E0880E911C2AE0A401C701B6010E949D
:1019D000E237F40101900020E9F731977F01E81820
:1019E000F9089E2C6701DD24812F90E004968C1568
:1019F0009D0514F4A3941D5F8A2D90E0845D9F4F94
:101A00000E943638A82E74FE04C0901610F40E19E9
:101A100001C000E08E2C811A800E181424F08EE292
:101A20009FDE012F0E19111102C088EF882E912C14
:101A300010E0C00ED11EE82C082C000CFF08892DE8
:101A400090E08C159D05ACF4FC013696E01BF10B83
:101A500081E090E08C0F9D1FE80FF91F808180DEF0
:101A60009394892D90E08E159F0549F78EE278DEDC
:101A7000E6CFAA2011F08A2D73DE662011F0862DA4
:101A80006FDE2E96E2E10C94C7370F93362FBC0120
:101A900080E090E0022F242F432F0EDF0F91089556
:101AA0000F93062FBC0180E090E026E54DEF04DFA8
:101AB0000F9108950F93042F28E440E0FDDE8AE79C
:101AC0004FDEC3D80F910895E82FF0E0EE0FFF1F0F
:101AD000E057FE4FA591B49190910001490F90916C
:101AE0000501690F20E0CD01B0CE0895CF93DF93BB
:101AF000C82FD62FE0913D01F0913E0148E16EE103
:101B00008685E2DFE0913D01F0913E014D2F6C2F83
:101B10008485DADFE0913D01F0913E0140E06EE125
:101B20008585D2DFDF91CF91089599B193FB9927F5
:101B300090F94999926080911101843050F08EE0C3
:101B400080930D0190930E011092120181E0809319
:101B5000110180911101E82FF0E0E35FFE4F308129
:101B6000931729F191111AC0E3E0E80FE370209177
:101B70001201323041F4F0E0E35FFE4F3081333048
:101B800069F42F5F09C0313049F4F0E0E35FFE4FA4
:101B90003081333019F4215020931201E1E0E80F35
:101BA000E370E0931101F0E0E35FFE4F90838091DA
:101BB000120187FD8195809313010895A0E0B0E0A4
:101BC000E4EEFDE00C94B437E82ED92E53985198EA
:101BD00021D910921201E0911101F0E03196E370E9
:101BE000FF27E35FFE4F80EF8083C5E6D9E19DDFED
:101BF0004F9905C013D9D150D1F7C150B9F7CE2DA7
:101C0000DD2DF12C15E500E0BB24B394D7FD36C0E3
:101C100082E3C82E8ADF02D9CA94C110FBCF110F0C
:101C20004F9B1F5F1F731F3349F4011103C0CE2D5B
:101C3000DD2D04E00F5F083C28F020C0111102C028
:101C400001111CC0A8951C161D0624F42A9711F436
:101C5000CFEFDFEF80911301882339F0F394809167
:101C60007701811102C0B092770184E18F1570F67F
:101C700080911201811102C0F12CC8CF802FCDB705
:101C8000DEB7E9E00C94D037CF930BDCC82F8091FE
:101C90003F01882301F1813051F4C33041F46FE0FA
:101CA00086E0D7DB8BE25CDD6FE086E0D2DB80E4B0
:101CB0009FE184DF811104C0809113018111F7CF6E
:101CC000C33041F480913F01813021F460E086E02F
:101CD000C0DB4CDCEFDBCF9108951895189530915F
:101CE0001801A0913D01B0913E01E1E9F1E080E0F1
:101CF00090E08317B0F441911C962C911C974217E9
:101D000019F04581241302C00196F3CFFC01EE0FB8
:101D1000FF1FE356FE4F20813181293E334008F4F6
:101D2000089584E1089510921A01109218011092FA
:101D30006F0110924F011092190110923B01109205
:101D40007601EAE5F1E0108211821282EBE7F1E020
:101D5000108A82E0818B10922001178616861482E9
:101D600015821682178281EF838B0895AEDB5E9811
:101D700040D880E090E022CF08951F93CF93DF9367
:101D8000162F17B818B8E82FF0E0E55BFD4F9491D7
:101D900095B9262F281BE20FF11D27FDFA95E49136
:101DA000E92BE4B980D8EC01812F7DD8AC012091DA
:101DB00030013091310136952795C9010397BE0155
:101DC000625E7F4F8617970778F4255E3F4FC217F4
:101DD000D30750F4BA01625E7F4F8617970720F44D
:101DE00081E04217530708F080E014B8DF91CF91EB
:101DF0001F910895CF9361E080E0BFDFC82F62E0BC
:101E000080E0BBDFC80F62E081E0B7DF8C0FCF91CD
:101E10000895AFE0B0E0EFE0FFE00C94AB37B82EF0
:101E200010921A01807FA9F4E5DF833009F094C392
:101E300051DB87E492E0FBDC1FDB8FE391DC80ED7C
:101E400097E0BCDE8B30C8F445DB85EF90E0EFDC3B
:101E500083C306E910E03EDB87EB91E0E8DCCADFF4
:101E6000833021F41F5F143010F007C010E088E2C7
:101E70000E941C07015079F760C0FEDA0E94EF252E
:101E800081EB90E0D4DC60E082E193E00E94433893
:101E900060E083E193E00E94433860E081E193E0F9
:101EA0000E94433860E082E026D96C019A838983DE
:101EB00061E082E020D97C019C838B8360E081E03B
:101EC0001AD98C019E838D8323E040E26EEFC60118
:101ED000DCDD23E040E26EEFC701D7DD23E04DE11A
:101EE0006EEFC801D2DD2AE5C216D10424F084E1E8
:101EF00090E09A838983698182E193E00E9443386C
:101F00008AE5E816F10424F084E190E09C838B8359
:101F10006B8183E193E00E9443380A35110524F078
:101F200084E190E09E838D836D8181E193E00E9446
:101F3000433882E080933F01A7DEEB2DEF70EF87FF
:101F4000E13011F018E749C1EE24E394F12C78EB6D
:101F5000872E72ED972E77E4A72EB12C02E0E8E0F1
:101F6000DE2EF0E23F2EC12C1E2D52E2252E25DB67
:101F700020DB84E5F5DBC7010E941B060E942506D5
:101F80001130B9F484EE90E052DC64E080913401C9
:101F90009091350185DD70DA8FED90E048DC80911D
:101FA000790190917A010E941B068EEB80932C019F
:101FB000F0C0123091F52091300130913101A8E547
:101FC000BBE10E94863724EC36E340E050E00E94FB
:101FD0006A3729013A0181E085B9F5E0F4B980E07A
:101FE0000E944807841995099A83898381E184B9FD
:101FF00080E00E944807841995099C838B8384E0C4
:1020000085B984E184B981E00E9448078419950963
:102010009E838D8389EC90E0AAC0133059F505B9F1
:102020002AE024B980E00E944807209130013091D5
:1020300031013695279538872F83821B930B9A831E
:10204000898324B880E00E9448072F813885821B4D
:10205000930B9C838B83D5B888E284B981E00E947E
:1020600048072F813885821B930B9E838D838BEBD2
:1020700090E07DC0143039F487E392E0D8DBBADE1B
:10208000811167C275C01530B1F415B804B980E08C
:102090000E9448079A838983D4B881E00E94480748
:1020A0009C838B8334B882E00E9448079E838D8393
:1020B0008BED90E05CC0163051F504B905B980E0B5
:1020C0000E9448072091300130913101821B930B0F
:1020D0009A838983D4B8D5B881E00E9448072091BB
:1020E000300130913101821B930B9C838B8334B878
:1020F00035B882E00E9448072091300130913101CB
:10210000821B930B9E838D8387ED90E030C0173048
:1021100079F52091300130913101A8E5BBE10E94B1
:102120008637A50194010E94483729013A0105B973
:10213000E3E0E4B980E00E944807841995099A8396
:102140008983D5B8FCE0F4B981E00E94480784197E
:1021500095099C838B8335B820E324B982E00E94E3
:102160004807841995099E838D8385EB90E05FDB9A
:1021700083D989819A810E9410060E9425068B814D
:102180009C810E9410060E9425068D819E810E94DE
:10219000100617B818B814B815B888EE93E00EDD1D
:1021A000143011F08B3020F4C39484E0C812DFCED9
:1021B00088EE93E003DDEFEFEE1AFE0AF8E0EF168B
:1021C000F10409F0D0CEBECEF8D987E392E02FDB40
:1021D00084E60E941C07115019F00CDE8111F4CF27
:1021E00079D98AEA90E023DB23E04DE16FEF80911B
:1021F00032019091330149DC3FD983EA90E017DB4B
:1022000023E04DE16FEF8091390190913A013DDC7F
:1022100082E080933F0138DD10921A015BD98FE98B
:1022200090E005DB60E082E00E94D72240908301CD
:102230005090840160908501709086015C864B8689
:1022400061E082E00E94D722809083019090840117
:10225000A0908501B09086019E868D8660E081E029
:102260000E94D72200918301109184011E830D8367
:1022700062E080E00E94D7228091830190918401E6
:102280009C838B8362E081E00E94D722809183014E
:10229000909184019A87898761E080E00E94D7222B
:1022A000E0908301F0908401FA82E982C2010E94E9
:1022B0002406C4010E942406B801110F880B990B53
:1022C00003E026E444EFF8DA2F85213021F08091F5
:1022D0003801823031F482E0E80EF11CF886EF829A
:1022E00004C0F886EF82109238018E010F5F1F4FF5
:1022F0006E01EFE0CE0ED11CF801819191910A9709
:10230000853B9105C8F4EC15FD05B9F741E3E42ED2
:1023100043E0F42EF80160810E5F1F4F6E5EC7012F
:102320000E944338FFEFEF1AFF0A0C151D0591F7C5
:10233000A3D885EA91E07BDA82E080933F01A4DCB8
:102340000E94C3332F85213029F0809138018230DB
:1023500009F0E8C0BFD880E04FDA8BE491E067DA9B
:1023600082E04ADA84E290E062DA20E4F22E10E0C1
:102370003AE0832E912CA12CB12CD5DC10921A01BD
:1023800060E082E00E94D72200918D0120917B01C4
:1023900030917C0140917D0150917E01073F44F4D2
:1023A0000F5FCA01B901A50194010E944837F6CF19
:1023B00000938D0120937B0130937C0140937D013C
:1023C00050937E01073F09F096C0DA01C90180569B
:1023D0009109A109B10980399545A105B10508F018
:1023E0008AC060918F0170919001CB018B569F4FF5
:1023F0008B32914008F07FC01F5F153008F47CC01D
:1024000088E393E00E94513865D88DE190E00FDABF
:1024100080918F01909190010E9410060E94C50743
:1024200018B881E087B980E284B982E00E9453073E
:10243000853D9340D4F714B810922F0110922E01CD
:1024400082E00E9453078C01809174019091750184
:1024500090932F0180932E0182E00E9453077C010C
:10246000EE0CFF1C10922F0110922E0182E00E94B0
:102470005307A0907401B0907501B0922F01A09203
:102480002E01800F911F8C010E191F090E943C0A1A
:1024900086E190E0CCD98AE393E00E943638D82ECA
:1024A0009501D8010E94953797010F2C000C440B21
:1024B000550B0E946A3713E01D0D120F612F8AE33E
:1024C00093E00E944338812F012E000C990B0E944B
:1024D00010060E94C50782E080933F01D5DB109271
:1024E000380181E393E00E943638682F84E393E05B
:1024F0000E94433817C010E00E943C0A60917B01A3
:1025000070917C0180917D0190917E0104E026E430
:1025100040918D01D1D92AD888E20E941C07FA94F3
:10252000F1102BCF89E180932C0180E00E94C0360E
:102530000E946A0A85EF90E07AD90E943C0A8EE2F6
:1025400092E075D910921A0182E080933F019CDBE2
:1025500003C082E0C82E0CCE2F96E2E10C94C73760
:102560008091380181110DC081E393E00E943638DB
:1025700061E0680F84E393E00E94433881E0809338
:1025800038010895EF92FF920F931F93CF93DF933B
:10259000D62FE82FF0E0E25BFD4FE491E8B9E7B910
:1025A00015B8E62FF0E0E55BFD4FE491E4B988E86B
:1025B000E82E83E1F82ECE2FCC0F8D2F0E944807F6
:1025C0008C01C4B98E159F0510F47801F6CF892BC4
:1025D000D9F00E944A0A8BE291E029D9D80120EA79
:1025E00036E841E050E00E949B3728E937EB40E0B5
:1025F00050E00E944837DA01C90122E041E467EF68
:1026000044DA17B818B814B8CDB7DEB7E6E00C94C2
:10261000D337A0E0B0E0EFE0F3E10C94AB3780E417
:102620008AB98BB95F9AC6E8C0937A001092C1004C
:102630000E94FB06D4B784B7877F84BF0FB6F89497
:10264000A89580916000886180936000109260007E
:102650000FBEC093640088E380937E001092B000A8
:1026600087E08093B10078940E94810AD3FD1FC552
:1026700084E080931101C0E04F9905C00E941B07C0
:10268000CF5FCC33C9F78FE59DE690930C01809323
:102690000B01CF3130F080E69DE690930C018093E2
:1026A0000B0110922D010E94EF259FE088E10FB6EB
:1026B000F894A895809360000FBE90936000CC338F
:1026C000B9F0C0E190E4C92E91E0D92E20E6E22EC7
:1026D00021E0F22E3CE0232EDDE040EFB42E53E368
:1026E000A52E61E2962E72E1872EE0E23E2E30C0EA
:1026F0000E94532F8111FCCFE4CF823009F42CC10A
:10270000833009F456C182E992E091D88AE792E0D9
:102710008ED80E943C0A80911801805D21D88AE2FF
:102720001FD887E291E083D880E692E080D886E0E7
:102730000E946B0B00E41FE1C7B94F9BFECFC8019D
:102740003DDA823308F495C40E94532F8111FCCFE7
:102750008FEA0E94610A84EA0E94610A0E946A0A62
:1027600017B8E1DA0E94EF250E94360AB2D48091B0
:102770003B01882371F00E943C0A80E491E057D825
:1027800063E080913001909131018AD988EC0E94F8
:102790001C070E943C0A0E94012280911A01893084
:1027A00019F50E946A0A85E491E041D80E943C0A2A
:1027B00063E0809154019091550172D90E942506E1
:1027C00063E080915601909157016AD90E942506D5
:1027D00063E0809158019091590162D98AEC0E947E
:1027E0001C0781E116DB40C484E393E00E94363885
:1027F000182F81E393E00E943638181B109338019C
:1028000080E007DB0E94DD0A8CEA92E010D842E00B
:1028100061E080E0D2D442E060E081E0CED441E0EB
:1028200062E080E0CAD441E060E082E0C6D440E0EB
:1028300062E081E0C2D440E061E082E0BED48091F9
:102840001A0181110EC00E94012260E082E00E9404
:10285000D72261E082E00E94D72260E081E00E94FE
:10286000D7220E946A0AD0923E01C0923D01809117
:102870001A01863069F485EC0E946B0B60E188EFE9
:1028800035D967E080E00E94290A83E892E00EC013
:102890008730E9F484EC0E946B0B60E188EF26D965
:1028A00067E080E00E94290A8CE892E00E94170C01
:1028B00067E082E00E94290A89E591E00E94170CF6
:1028C00062E08091440190914501EAD8CDC38830FF
:1028D00081F420918B0180918C0190E0820F911DF9
:1028E000029719F40E944928CDC380E00E947827FE
:1028F000BBC3833009F097C080911801813009F083
:10290000FCCE80E00E94CC066091910180919701FD
:1029100039DE80E70E94A50640E060919101809138
:1029200097010E94E63260937B0170937C01809353
:102930007D0190937E0180E00E94D60A60917B0128
:1029400070917C0180917D0190917E0102E026E4EE
:1029500042EF0E945C0CE6C282E30E94B00B8DE065
:1029600091E00E94170C9091910130919201931384
:1029700007C080E00E94E70681E00E94DE060CC0EE
:102980002091970180919801281308C080E00E944F
:10299000D80681E00E94ED0681E0BCCF321304C06E
:1029A00081E08093060132C09813ADCEC09306013A
:1029B0002DC0A092060180919701909192018913F8
:1029C00003C021E0209306014091910130919801CC
:1029D000431302C0C093060120919301821303C0E8
:1029E00082E08093060180919901481302C03092E1
:1029F000060132130EC080920601981761F083E33E
:102A00000E94B00B8DE091E00E94170C0E94BB0663
:102A100089C2981302C09092060180910601823209
:102A200008F071CEECCF843009F050C180916F0175
:102A3000882309F45DC080914F01882309F458C0B0
:102A400060914C0180914E010E94D72240907B0101
:102A500050907C0160907D0170907E0110918D01FD
:102A600060916E0180916C010E94D722809140019B
:102A700090914101A0914201B091430140916001C8
:102A8000509161016091620170916301843F21E086
:102A90009207A105B10538F4443F31E053076105C1
:102AA000710508F010EF443F51406105710538F49D
:102AB000843F9140A105B10510F0B0928D01809145
:102AC0008D0118130EC080917B0190917C01A09123
:102AD0007D01B0917E01481659066A067B0618F002
:102AE00005C018171CF4D093190102C020921901D7
:102AF00080916F01882361F080914F01882341F01C
:102B00004F9906C09091190181E08927809319019E
:102B100067E080E00E94290A80EC0E946B0B8091A4
:102B200019018C3051F485E791E00E94170C8091D7
:102B30006F018823A9F080E711C0F0923E01E09276
:102B40003D0181ED91E00E94AD0B8DE691E00E9488
:102B5000170C80914F01882319F08EE60E94B00B6C
:102B6000BED8182F8530A0F4A0913D01B0913E0150
:102B7000E82FF0E0EF56FE4F1D969C91808198174C
:102B800011F062E001C060E086E991E00E94970BDD
:102B900060E189EF0E94760D87E00E94BC0A84E81C
:102BA00091E00E94170CE0913D01F0913E0160819F
:102BB00071818281938103E020E04EEF0E945C0CE2
:102BC00088E00E94BC0A89E40E94B00BE0913D01BC
:102BD000F0913E01868197818031974270F085E6C1
:102BE0000E94B00BE0913D01F0913E0186819781FA
:102BF000805197429783868303C083E60E94B00B7F
:102C00000E942906E0913D01F0913E0122E041E45D
:102C10006AEF868197810E94450D87E00E94BC0A79
:102C20008DE591E00E94170CE0913D01F0913E018D
:102C300063E0848195810E94500D81E080933F0183
:102C4000E0913D01F0913E0180859185892B91F0C5
:102C500086E00E94D60A8FEE90E00E94170CE09169
:102C60003D01F0913E0122E041E46AEF80859185CB
:102C70000E94450DE0913D01F0913E0182859385D2
:102C8000892B91F086E00E94D60A89EE90E00E949E
:102C9000170CE0913D01F0913E0122E041E46AEF22
:102CA000828593850E94450D153068F480E00E946E
:102CB000D60A812F0E94CC0689E591E00E94170C6C
:102CC000812F0E94970643E462E42AC1853009F00F
:102CD00033C167E080E00E94290A8091190184FFD6
:102CE00009C080E50E94B00BF0923E01E0923D01E8
:102CF00012E004C08EE40E94B00B10E00E94270690
:102D000080911901082F0F70043061F48FE891E071
:102D10000E94170C83EC0E946B0B1123E1F18AEDEA
:102D200091E037C085FF05C084E40E94B00B1F5FAF
:102D300003C085E40E94B00B0330B1F489E891E050
:102D40000E94170C81EC0E946B0B113019F487E282
:102D500092E01FC0123019F483E392E01AC01330DE
:102D6000D1F483E092E015C084E991E00E94170C51
:102D700082EC0E946B0B113019F483EF91E009C0D3
:102D8000123019F489EF91E004C0133021F481EE80
:102D900091E00E94AD0B0E946F0E8530A0F4A091CF
:102DA0003D01B0913E01E82FF0E0EF56FE4F1D9639
:102DB0009C918081981711F062E001C060E086E983
:102DC00091E00E94970B60E189EF0E94760D87E009
:102DD0000E94BC0A8091190185FD1CC085E591E027
:102DE0000E94170CE0913D01F0913E0162E0828566
:102DF00093850E94500DE0913D01F0913E01668562
:102E000084850E94D72287E00E94BC0A0E94300C71
:102E100086E068C08F70E0913D01F0913E01843002
:102E200039F0668584850E94D7220E94300C13C039
:102E300084819581892B79F080E090E00E94170CC5
:102E4000E0913D01F0913E0122E041E46AEF84818E
:102E500095810E94450D60E084E00E94290A89E482
:102E60000E94B00B0E942906E0913D01F0913E01C5
:102E700022E041E46AEF868197810E94450D8FE44C
:102E800091E00E94170CE0913D01F0913E0162E05B
:102E9000828593850E94500DE0913D01F0913E01A5
:102EA00080859185803C9241E0F480E00E94D60AC2
:102EB00089E40E94B00B0E94290622E041E46BEFF6
:102EC00080E090E00E94450D8FE491E00E94170C95
:102ED000E0913D01F0913E0162E0808591850E9484
:102EE000500D80E00E94480C043009F4B8C010E096
:102EF00080911801181778F480E00E94D60A812F7B
:102F00000E94CC0689E591E00E94170C812F0E9457
:102F100097061F5FEDCF033009F0C5C043E467E4B7
:102F200085E4A0C080917601882309F49DC0C7B9CB
:102F300017B880E00E94D60A20917601222309F476
:102F400081C02130A1F480915D010E94680620912A
:102F50005D01213039F420911801211103C00E9434
:102F6000002890C040E0692F0E94BB267DC0909150
:102F70005D0180915E0134E0839FD0011124A25550
:102F8000BE4F34E0939FF0011124E255FE4F4D9067
:102F90005D906D907C904081518162817381441578
:102FA00055056605770510F4182F01C0192F22303A
:102FB00021F4890F13E0181B1CC080915F0194E07D
:102FC000899FD0011124A255BE4F24E0129FF00129
:102FD0001124E255FE4F4D905D906D907C904081A4
:102FE000518162817381441555056605770508F4A2
:102FF000182F712E769402E0011B111103C0662474
:10300000639402C082E0682E872D0E94FC0B88E04A
:1030100091E00E94170C802F0E94FC0B88E091E049
:103020000E94170C862D0E94FC0B80E00E94BC0AB7
:1030300081E0111180E00E94720682E087190E94EF
:10304000720612C08AE692E00E94170C0E943C0AA7
:1030500087E992E00E94170C82E992E067CB4FE388
:1030600067E48FE30E94520600910B0110910C015E
:1030700063CB90911301933008F066CB811168CB3C
:1030800091115DCB80913801882351F00E946A0A2A
:1030900081E592E00E940A0C80E197E20E94DE0D39
:1030A0000E94B60E55CB44E467E483E5DBCF0E9473
:1030B000360A87E592E00E94170C8BEC0E941C07F1
:1030C0000E94B60E80E090E0CDB7DEB7E2E10C944E
:1030D000C7370F931F93CF93DF9385E00E94530769
:1030E00085E00E944F078C01EC01CC0FDD1FCC0F57
:1030F000DD1FCA56DF4F10923601C43883E0D8076F
:1031000050F489E991E00E94170C0E94B60A81E010
:103110008093360126C088EA91E00E94170C62E095
:10312000CE010E94500D0E9425060B3483E0180743
:1031300090F40931134060F480EA92E00E94170C89
:103140000E94B60A8DEC0E941C070E94B60E09C0B0
:1031500087EA92E002C085EA91E00E94170C0E9483
:10316000B60ADF91CF911F910F910895CF93DF930E
:10317000DC019C01261B370BE0E090E0B901690FF0
:10318000711D672F7727920F260F371FBA016E0F19
:10319000711D672F7727E40FEB01CC0FDD1F4C0F5C
:1031A0005D1F6B3E28F4A217B30740F7CA0102C0A7
:1031B00080E090E0DF91CF910895A7E1B0E0E3EEE9
:1031C000F8E10C94AB378E8B162F042FA895E62FC1
:1031D000F0E0E55BFD4F24912B87220F298B33967E
:1031E00034913A83E42FF0E0E55BFD4F44914B834B
:1031F0003396F490E82FF0E0E55BFD4F84918983EE
:10320000880F8E87339694919F8B45B96B84642A7F
:1032100064B897B998B9862F0E944F079D878C870D
:10322000EB85E4B9812F0E944F071C0114B80E945E
:10323000040715B864B8812F0E944F076C857D85FF
:103240000E94B1074C01FA81F7B918B82B81398176
:10325000232B2C8325B924B98E890E944F070E9405
:10326000B7075C0115B80E940407498145B98E89EA
:103270000E944F070E94B7076C01898184B98E892B
:103280000E944F070E94B707782EE92EB601C501AC
:103290000E94B1078032E1E09E0730F4F0E28F1621
:1032A000F1E09F0608F48AC58C0C9D1C2C853D8599
:1032B000820F931F8816990620F4DD86CC86272C72
:1032C0003E2C20914F0130916F01822F90E0830FAF
:1032D000911D02974CF0213009F070C590914C017E
:1032E00080916C0198136AC5EB80EE0C39813E2900
:1032F0003A878C859D858437910508F48BC1880FAA
:10330000991F44962816390608F084C19F8997B9F9
:1033100098B98B858E2984B9812F0E944C076C0146
:10332000802F0E9453075C01E5B8812F0E944C0753
:103330009601295A3D4F18B82817390708F0AAC036
:10334000EA81E7B9FA85F4B9F5B9802F0E944C07F4
:1033500088349F4028F085E080931A0182E204C0FF
:1033600085E080931A0184E280931901D09245018F
:10337000C0924401B501C6010E94BC0790934B0165
:1033800080934A019601A0E1B7E20E94863720911E
:1033900014013091150140E050E00E94483730930D
:1033A00047012093460189898E2984B915B83F8940
:1033B00037B938B9802F0E9453076C01812F0E94C2
:1033C0004C07B6010E94BC079C0190934901809371
:1033D0004801909119019F70943071F54091460118
:1033E0005091470160914A0170914B01C901BEDEC5
:1033F0000097F1F0E4B84F898A81482B47B9812FB3
:103400000E944C076C0117B89C01A0E1B7E20E9432
:1034100086372091390130913A0140E050E00E9416
:103420004837A901B60180914801909149019EDE7B
:103430009093450180934401809119018F708430ED
:1034400009F4B4C418B89A81F92AF7B8E981E4B943
:10345000FC81F5B98E890E944F076C010E94B70765
:103460007C01812F0E945307A0901B01B0901C018A
:10347000BC01C6010E94BC079501DC010E94863791
:10348000970140E050E00E94483730934501209377
:1034900044018CC42A8127B93A8534B935B98E895B
:1034A0000E944C076C01802F0E9453075C014981E8
:1034B00045B98E890E944C07895A9D4F8C159D05F0
:1034C00008F07CC48F8988B987B9802F0E944C0787
:1034D000813D934028F485E080931A0182E304C083
:1034E00085E080931A0184E380931901B601C50138
:1034F0000E94BC0790936B0180936A01C6010E94F1
:10350000B7079C01A0E1B7E20E94863720911B011A
:1035100030911C0140E050E00E9448373093670131
:103520002093660118B8FA81F7B98E858E2984B97F
:1035300085B98E890E9453076C01802F0E944C0729
:10354000B6010E94BC079C019093690180936801B9
:10355000909119019F70943091F5409166015091BE
:10356000670160916A0170916B01C901FFDD0097ED
:1035700011F1E5B8E4B82F8928B92A80222A27B8A2
:103580008E890E944C070E94B7076C0117B89C01F6
:10359000A0E1B7E20E9486372091320130913301D9
:1035A00040E050E00E944837A901B60180916801CF
:1035B00090916901DBDD90936501809364018091B6
:1035C00019018F70843009F4CFC13F893F2938B980
:1035D00037B915B84C8144B98E890E944F075C01F8
:1035E000812F0E9453077C01C0901401D0901501D7
:1035F000BC01C5010E94BC079601DC010E94863710
:10360000970140E050E00E944837309365012093D5
:103610006401AAC118B88A8187B9998195B9EA85E8
:10362000E4B98E890E944F07988B8F870E94B70755
:103630009F838E83802F0E9453079987888721015B
:10364000F4E64F0E511C2E813F81B1014216530604
:10365000D8F4C9010E94BC076C0120911B01309174
:103660001C0140E050E060E871EA83E09CE10E94C8
:103670004837D6010E949B37E885F9854F01A12C78
:10368000B12CA501940123C08E819F810E94BC07AB
:103690006C01FC81F4B98E890E944F07988B8F874B
:1036A0000E94B7079F838E83802F0E9453079987BC
:1036B0008887BC01C6010E94BC079C01A4E6B0E05B
:1036C0000E948637E885F9859F0140E050E00E941E
:1036D000483749015A0114B815B8FF89F8B9F7B944
:1036E00081E00E941C0764B8812F0E944F077B84F1
:1036F0007E288F359D4008F43DC174B8812F0E940B
:103700004C076C01802F0E9453079B8B8A8B8E89FC
:103710000E9453079D8B8C8B8A899B89813D9740A2
:1037200008F4B1C084E080931A018DE08093190100
:1037300076012C143D0410F4E218F30840901401B3
:1037400050901501612C712C60E871EA83E09CE1D6
:10375000A30192010E944837D7010E949B37EA8952
:10376000FB899F0140E050E00E94483780916F0143
:10377000882369F08091600190916101A0916201BC
:10378000B091630182179307A407B50708F520934A
:10379000600130936101409362015093630196018F
:1037A000A0E1B7E20E948637A30192010E94483748
:1037B00030936701209366016A897B898C899D8992
:1037C0000E94BC07909365018093640181E001C071
:1037D00080E04091600150916101609162017091BF
:1037E0006301481559056A057B0538F5809260012B
:1037F00090926101A0926201B0926301688579851F
:103800008F8598890E94BC0790936501809364011D
:103810002E813F81A0E1B7E20E94863720911B01F3
:1038200030911C0140E050E00E944837205F384D45
:10383000309367012093660103C0882309F499C37C
:10384000C0901401D0901501E12CF12C9101A0E160
:10385000B7E20E948637A70196010E94483730934D
:103860006901209368012C853D85A0E1B7E20E94A3
:103870008637A70196010E94483730936B01209349
:103880006A0181E076C3F1E62F16310408F072C0B8
:1038900021EDC21627E0D20608F46CC085E08093C3
:1038A0001A0182E180931901C60186509F4FEC896D
:1038B000FD898E179F0720F483E18093190116C0BC
:1038C000E0901401F0901501B6018C899D890E9449
:1038D000BC079701DC010E948637960140E050E06A
:1038E0000E9448373093650120936401FA81F77094
:1038F0002F2E802F806480937C002BE02983CC24A2
:10390000C394D12CEE24EA94A3E0FA2EA89561E0AA
:103910008B8160D574B886B18221E9F33B8534B9D7
:1039200080917A00806480937A0080917A0086FD8D
:10393000FCCF8091780090917900F701E81BF90B9A
:10394000CE0EDF1EF981F150F983F111DFCFC601F0
:10395000880F991F880F991F69E070E00E94213736
:1039600070936B0160936A0180916F018F5F809308
:103970006F0187CF74B8E5B8812F0E944F075C01B3
:10398000802F0E9453079F838E830E94B7077C017C
:103990004A145B04A8F4B101C5010E94BC076C0184
:1039A000209114013091150140E050E060E871EA87
:1039B00083E09CE10E944837D6010E949B371DC0DE
:1039C00064B82B8125B9812F0E944F075C01802F9D
:1039D0000E9453079F838E830E94B7077C01C50115
:1039E0002A143B0410F482199309B7010E94BC0702
:1039F0009C01A4E6B0E00E948637970140E050E0C9
:103A00000E94483729013A013A8137B918B84C81E8
:103A100044B945B98E890E944F076C01802F0E94DE
:103A200053074C01812F0E9453077C0180E3C81685
:103A300081E1D80608F0C0C1998195B98E890E94AC
:103A40004F0799878887E981E4B98E890E944F07DB
:103A5000988B8F8715B881E00E941C07F981F5B912
:103A60008E890E944F072F8538892034364008F010
:103A70005FC08133914108F45BC0C6018A569F4FF5
:103A8000288539852817390708F052C086E08093C9
:103A90001A0180914F018F5F80934F01B701C401DC
:103AA0000E94BC079093450180934401B701C60171
:103AB0000E94BC0790934B0180934A0114B815B83B
:103AC0003A8138B981E00E941C07498144B98E8946
:103AD0000E944F07853F910508F05AC28C8184B936
:103AE000802F0E944F07813D934008F451C28E8978
:103AF0000E9453078D3D924008F44AC2298124B99F
:103B00008E890E944F078D3D924008F441C2498141
:103B100045B981E00E941C0715B88E890E944F07A5
:103B2000853F910508F034C287E080931A0130C2C6
:103B30008A8187B99B8194B995B981E00E941C075D
:103B4000EA85E4B9E5B98E890E944F076C010E94AD
:103B5000B7077C01802F0E9453079D838C830E94AE
:103B6000B70799878887812F0E9453074C012885C2
:103B700039852E3F394008F4B0C084E080931A01A3
:103B80008CE080931901B101C7010E94BC076C0150
:103B900020911B0130911C0140E050E060E871EA87
:103BA00083E09CE10E944837D6010E949B37E8855C
:103BB000F9859F0140E050E00E94483780914F0115
:103BC000882369F08091400190914101A0914201C8
:103BD000B091430182179307A407B50720F52093FE
:103BE0004001309341014093420150934301B4019D
:103BF0008C819D810E94BC07909345018093440174
:103C00009701A0E1B7E20E94863720911B01309115
:103C10001C0140E050E00E94483730934701209358
:103C2000460181E001C080E0409140015091410196
:103C30006091420170914301441555056605770571
:103C400028F54092400150924101609242017092E9
:103C50004301B5018E819F810E94BC07909345016D
:103C6000809344019501A0E1B7E20E94863720913C
:103C700014013091150140E050E00E944837205F68
:103C8000384D309347012093460103C0882309F43F
:103C900080C19101A0E1B7E20E9486372091140112
:103CA0003091150140E050E00E94483730934901BF
:103CB000209348012C853D85A0E1B7E20E9486371C
:103CC00020911B0130911C0140E050E00E944837D8
:103CD00030934B0120934A015BC1F1E62F1631046A
:103CE00008F06AC029E4E2162DE0F20608F464C088
:103CF00085E080931A0182E080931901C401865007
:103D00009F4F8C159D0520F483E08093190115C009
:103D1000A0901B01B0901C01B401C6010E94BC0719
:103D20009501DC010E948637970140E050E00E9437
:103D3000483730934501209344013F893770D32E93
:103D4000802F806480937C004BE04A83EE24E394D0
:103D5000F12CA89560E08B813DD38A8584B985B923
:103D600086B18D21E9F7998194B980917A008064B8
:103D700080937A0080917A0086FDFCCF8091780054
:103D800090917900E80EF91EEA81E150EA83E11191
:103D9000E0CFC701880F991F880F991F69E070E075
:103DA0000E94213770934B0160934A0180914F012B
:103DB0008F5F80934F01ECC017B818B814B815B8CE
:103DC00017B8F7EC2F16F1E03F0608F4C4C018B896
:103DD0002E8524B908ECEA803F89E32AE7B881E020
:103DE0000E941C074A8147B98E890E945307429757
:103DF00010F0015099F78E8584B985B961E08B8107
:103E0000E9D28E890E944F074C01998994B915B85F
:103E1000EF89E7B9E8B960E08B81DCD2812F0E949D
:103E20004F070E94B7076C01FB85F4B9812F0E94F0
:103E300053077C018E890E944F07B7010E94BC077F
:103E40007C01812F0E9453075C018E890E944F07DD
:103E5000B5010E94BC0797012C5E3F4F2817390718
:103E600008F47CC018B82A8127B9398134B935B92A
:103E700061E08B81AFD2812F0E9453075C018E8954
:103E80000E944F07B5010E94BC075C01E816F906C5
:103E900050F44E8544B945B98E890E944F079C0164
:103EA000640175010FC0898984B915B89F8997B9D4
:103EB00098B960E08B818ED2812F0E944F070E94BB
:103EC000B7079C01E8EEEE16E3E0FE0630F4C7010A
:103ED00064E670E00E94213706C0B70154E0769591
:103EE00067955A95E1F7C70187599109893891413A
:103EF00090F52E153F0578F5C60143E09695879518
:103F00004A95E1F7893C910510F088EC90E08C0D22
:103F10009D1D8E159F05F8F46C157D05E0F48091CC
:103F20001A01833018F483E080931A01209118015C
:103F3000822F90E0FC01EF56FE4F3E8930831683BE
:103F4000880F991FFC01E356FE4FF182E0822F5F3C
:103F50002093180103C0612F8E892AD017B818B892
:103F600014B815B88EE20E94B00B6796E2E10C948B
:103F7000C73790916F019F5F90936F01882371F312
:103F800000936C0110936D014E8940936E01E6CF52
:103F900081E090914F019F5F90934F018823F1F250
:103FA00000934C018E8980934D0110934E01D6CF22
:103FB000A0E0B0E0EEEDFFE10C94AD37A895462F00
:103FC00050E0FA01E55BFD4F949033969491A82F51
:103FD000B0E0FD01E55BFD4FE4903396F490709105
:103FE0006F0120914F0130E0270F311D232B09F085
:103FF000ECC1A89520911E0130911F01220F331FA3
:10400000220F331F3093310120933001209174012E
:1040100030917501220F331F220F331F30932F0170
:1040200020932E012EEB20932C01C0911801E1E981
:10403000F1E070E04A0F5B1F7C1759F02191A581D8
:1040400030E02A0F311D2417350709F451C07F5F76
:10405000F3CFD62FC82F18B897B9E4B8E5B8B8E1B0
:10406000BB2EC12CD12C8D2F0E944F07782E692E8C
:104070008C2F0E9453078C018C199D0997FF03C058
:10408000919581959109039734F0A895BA946801A8
:10409000B110E9CF2DC0EE0C15B8E4B88C2F0E94FA
:1040A0004F078135910520F5E5B88C2F0E944F0709
:1040B0006C01F7B8F8B815B894B8A8E18A2EA12C0D
:1040C000B12C8C2F0E944F07582E492E8D2F0E9405
:1040D00053077C018A199B0997FF03C0919581952D
:1040E00091090397CCF0A8958A9457018110E9CFE4
:1040F00080911E0190911F019093310180933001B6
:10410000809174019091750190932F0180932E01FD
:1041100089E180932C0159C1990C94B88D2F0E948C
:104120004F075C01003C84E4180730F425E8C21610
:1041300021E0D206E8F605C080EBC8168DE4D8066B
:10414000B8F624EAE21622E0F20608F06CC088E92C
:10415000A816B10468F2C6010E94B707AC01960127
:10416000A8E9B7EB0E9486379A0140E050E00E9430
:10417000483729013A01C5010E94B7079C01A8E907
:10418000B7EB0E948637850120E030E0A901980155
:104190000E94483788E7C8168FE0D80680F4D3011C
:1041A000C201F2E0880F991FAA1FBB1FFA95D1F731
:1041B000BC01CD01620F731F841F951F14C088E7D7
:1041C000A8168FE0B806B0F4DA01C901E2E0880F62
:1041D000991FAA1FBB1FEA95D1F7BC01CD01640D41
:1041E000751D861D971D25E030E040E050E00E94DF
:1041F00048370CC0D301C201820F931FA41FB51F03
:104200009C01AD015695479537952795A4E6B0E0FA
:104210000E949B372B013C012CEA420E2DE0521EDE
:10422000611C711C79C0672D762D0617170708F4DD
:10423000B801C52CD42CCE14DF0408F4670106178E
:10424000170708F48B01A0901B01B0901C01C80156
:104250000E94BC079501DC010E9486372B013C01BE
:10426000C8010E94B7079C0140E050E0C301B201C1
:104270000E94483729013A01CE14DF0408F4760180
:10428000A0901401B0901501B701C6010E94BC07AF
:104290009501DC010E9486374701A12CB12CA501B4
:1042A00094010E94483708378FE0180780F4D30143
:1042B000C20162E0880F991FAA1FBB1F6A95D1F740
:1042C000BC01CD01620F731F841F951F14C088E7C6
:1042D000E8168FE0F806C0F4DA01C90132E0880F71
:1042E000991FAA1FBB1F3A95D1F7BC01CD01640DE0
:1042F000751D861D971D25E030E040E050E00E94CE
:10430000483729013A0108C0420E531E641E751E2B
:10431000769467945794479410911A01143008F0DA
:10432000E7CEC1500C2F0D0F202F30E0E901C65A07
:10433000DE4F8881220F331F220F331FF901E25510
:10434000FE4F8823D9F1C080D180E280F380A301A1
:1043500092012C193D094E095F0957FF07C050957E
:104360004095309521953F4F4F4F5F4FAAE0B0E009
:104370000E949B3724E6C20ED11CE11CF11CA70150
:104380009601240D351D461D571D0E944837232BCD
:10439000242B252B09F0ACCE133019F081E080934B
:1043A0001A0182E0888380917601E82FF0E0E35AD9
:1043B000FE4F00838F5F809376019ACE40825182B8
:1043C0006282738281E0888393CECDB7DEB7E0E16D
:1043D0000C94C937CF93C82FC09595B160FF02C028
:1043E000982B01C09C2395B994B1892B84B90E9464
:1043F0001B0784B18C2384B985B1C823C5B9CF917B
:104400000895AF92BF92DF92EF92FF920F931F93A6
:10441000CF93DF931AE08FE3D82E09E017B818B8CE
:1044200015B8D4B880E00E944F077C0181E00E945B
:104430005307EC0182E00E9453079C0180911A010E
:10444000893079F417B814B8F0925501E09254010C
:10445000D0935701C09356013093590120935801CE
:104460005CC084E0E816F10440F4C430D10568F47F
:104470002430310538F391E00CC091E088EEE81665
:1044800083E0F80618F090E001C091E0C83ED34008
:1044900008F49260283E334008F4946097B9C0E075
:1044A000D0E0A89580E00E9448075C0181E00E946E
:1044B00053077C0182E00E94530724E1A21625E005
:1044C000B20608F4389A24E1E21625E0F20608F470
:1044D000399A843125E0920708F43A9A26E0A21628
:1044E000B10430F426E0E216F10410F4069738F037
:1044F0002196C43F81E0D807A1F600931A01E12C70
:10450000F12CEC16FD0631F00E940A072FEFE21A9B
:10451000F20AF7CF115009F081CFDF91CF911F91AF
:104520000F91FF90EF90DF90BF90AF900895CF92E2
:10453000DF92EF92FF92CF9320917B0130917C012B
:1045400040917D0150917E01C0918D018AE0C82E7D
:10455000D12CE12CF12C8C2FCF5F213A96E8390732
:1045600091E04907510538F0CA01B901A701960148
:104570000E944837F0CF80938D01A0913001B09117
:1045800031010E949B3728E833E140E050E00E946F
:10459000483720937B0130937C0140937D015093F9
:1045A0007E01CF91FF90EF90DF90CF9008958F9292
:1045B0009F92AF92BF92CF92DF92EF92FF921F93A2
:1045C000CF93DF93982F990F980F2FEF260F920F0D
:1045D00090935101E82FF0E0E55BFD4FD491262F39
:1045E00030E0F901E55BFD4FF490F901E25BFD4F2E
:1045F000D49090911A01913009F49DC22091180134
:10460000E1E9F1E0DF0190E0921791F016963C911C
:104610001697631309C03C91831306C044855585E2
:104620004C3D554008F487C29F5F11963296ECCFFF
:10463000162FC82F109288011092870181EF809366
:104640008D0110927B0110927C0110927D011092DD
:104650007E01D7DE18B8D7B8F4B8F5B88C2F0E9411
:1046600053075C01812F0E945307A81AB90A14B896
:104670001092530110925201809152019091530176
:10468000843F914008F0A9C0D5B9D4B90E9404076D
:1046900014B815B80E940B07A8958C2F0E945307D9
:1046A0007C01EA18FB0880915201909153018E37EA
:1046B000910528F08BE4E816F1040CF48EC080918B
:1046C0005201909153012DE2E21621E0F20634F4FA
:1046D00001969093530180935201CECF892B09F01C
:1046E000A1C185E1E81685E0F8060CF49BC189DEDE
:1046F00015B887E087B918B8FD2EFF0CF4B880E430
:1047000080937B0084E580BF8C2F806480937C0045
:1047100086E180937A000E940E0710925301109256
:10472000520110928000109285001092840087E25E
:1047300086BB81E280936F0081E080937801F5B8B9
:1047400090911A0180938100953009F04BC081E06F
:1047500090E00C2E01C0880F0A94EAF780958770CC
:1047600087B9F89483B7817F83BF809178018823CC
:1047700089F083B7816083BF7894889583B78E7FF3
:1047800083BFF894A8958091520190915301803491
:10479000964059F7789410928100E0908600F0904E
:1047A000870010926F0086E980937A0014B815B8DC
:1047B0008C2F0E9453072091340130913501821BC8
:1047C000930B0C969093900180938F0180915201EE
:1047D000909153018032934038F017B818B814B84C
:1047E00015B8A9C1D7B8BDCF80915201909153019E
:1047F0009093860180938501F0928401E092830179
:1048000084EF80938D018091520190915301823405
:104810009105C8F0609183017091840180918501B8
:104820009091860124E630E040E050E00E94483755
:104830002093830130938401409385015093860136
:1048400086EF80938D01A0917901B0917A0120913A
:1048500083013091840140918501509186010E942D
:104860009B3720E233E040E050E00E94483720933D
:1048700083013093840140938501509386012093F6
:104880007B0130937C0140937D0150937E014FDE8C
:1048900080918D01843F09F070C0C0907B01D09061
:1048A0007C01E0907D01F0907E0180EAC8168FE0E7
:1048B000D806E104F104C0F4A70196012C543F4F3F
:1048C0004F4F5F4F60EA7FE080E090E00E94483702
:1048D000C20ED31EE41EF51EC0927B01D0927C0155
:1048E000E0927D01F0927E01C0907B01D0907C012E
:1048F000E0907D01F0907E01C114D10421E0E20638
:10490000F10428F4D092BF01C092BE0106C081E03C
:1049100090E09093BF018093BE018091510190E09F
:104920008F5C9C4F0E94363890E0A0E0B0E08C1580
:104930009D05AE05BF0568F4C81AD90AEA0AFB0A44
:10494000C0927B01D0927C01E0927D01F0927E01C9
:1049500014C034E1C30ED11CE11CF11CC816D906E9
:10496000EA06FB0610F40E94B01210927B0110922E
:104970007C0110927D0110927E01D4B980917B015F
:1049800090917C01A0917D01B0917E014997A10594
:10499000B10508F422CFC12CD12C809118018823B5
:1049A00029F080911A01853009F017CF88E08093B3
:1049B0001A0180918D0190918E019817C4F089138E
:1049C0000CCF80907B0190907C01A0907D01B090F5
:1049D0007E0140917F015091800160918101709131
:1049E0008201481559056A057B0508F0F6CE40910D
:1049F0007B0150917C0160917D0170917E0140931B
:104A00007F015093800160938101709382018093B4
:104A10008E01D0928A01C092890110938B01C093BC
:104A20008C01DBCEC701C12CD12C209152013091D9
:104A300053012C153D0560F00E9405078C2F0E9444
:104A400053078A199B09A8952FEFC21AD20AEDCFF6
:104A50005701A81AB90A1A141B049CF439ECA316BE
:104A6000B1040CF0BACE28EE33E0D5010E949537A0
:104A700097010F2C000C440B550B0E94483769011D
:104A800002C0C12CD12C809152019091530101960A
:104A9000A0E0B0E08093830190938401A09385010E
:104AA000B0938601C7018A0D9B1D0E9418082091B2
:104AB0008301309184014091850150918601DC0190
:104AC0000E949B37609383017093840180938501DA
:104AD0009093860160937B0170937C0180937D01AC
:104AE00090937E0187EF80938D0121DD80907B0183
:104AF00090907C01A0907D01B0907E0184E193E0D4
:104B00000E943638A8EEB3E0A81BB10987FDB39523
:104B1000A50194010E94A53724E630E040E050E072
:104B20000E94483720937B0130937C0140937D01A4
:104B300050937E0132CFDF91CF911F91FF90EF9084
:104B4000DF90CF90BF90AF909F908F9008951F926D
:104B50000F920FB60F9211248F939F93B59904C0B3
:104B600080917801811109C0B59B10C080918600A9
:104B7000909187008A3F910548F48091520190916D
:104B80005301019690935301809352019F918F910D
:104B90000F900FBE0F901F9018951F920F920FB697
:104BA0000F9211248F939F9310927801B09B10C0A5
:104BB00080918600909187008A3F910548F480910A
:104BC00052019091530101969093530180935201A9
:104BD0009F918F910F900FBE0F901F901895A0E09E
:104BE000B0E0E5EFF5E20C94B13788E893E19093FB
:104BF0001F0180931E0190933101809330018EEB51
:104C000080932C0118B880E187B90E94130717B868
:104C100084E00E944F07AC018B5C9840833F914039
:104C2000A0F481E080933B0120913001309131016B
:104C3000AFEBB9E00E9486379A0140E050E00E9455
:104C4000483730931F0120931E0180911E019091DF
:104C50001F0190933101809330018EE00E94530731
:104C60008EE00E944F0790933501809334010E949B
:104C7000C507C7DB18B8C1E0C7B9C5B9C4B980E07A
:104C80000E944F078C0182E0C82EC7B8D4E0D5B986
:104C9000D4B981E00E944F07080F191FD7B990E1DE
:104CA000D92ED5B8D4B882E00E944F07080F191F3B
:104CB00015B8C8B9C7B9C4B980E00E944F070E94AF
:104CC000B7077C01C8B8C7B8D4B981E00E944F07C4
:104CD0000E94B707E80EF91ED8B9D7B9D4B882E058
:104CE0000E944F070E94B707E701C80FD91F17B8E6
:104CF00018B814B820913001309131016901CC0C01
:104D0000DD1CC20ED31EC01AD10ACC1ADD0AE12C5A
:104D1000F12C9801A0E9BAE10E948637A70196011B
:104D20000E94483749015A0130933A0120933901D2
:104D30009E01A0E9BAE10E948637A70196010E9470
:104D4000483730933301209332012057354E30934A
:104D50001C0120931B0180E7881A85EE980A909227
:104D600015018092140189E180932C01CDB7DEB743
:104D7000ECE00C94CD37CF92DF92EF92FF920F933D
:104D8000CF93DF93F82EC62FD42F0E94FC0B88E020
:104D900091E00E94170CFAD16C2F8F2D0E944035A4
:104DA000C090C201D090C301E090C401F090C50151
:104DB0008091200187FD05C0C114D104E104F104F4
:104DC00021F084E091E00E94170C8C2F0E94FC0BD4
:104DD000C114D104E104F10431F00E942506809150
:104DE0005D010E947206DD2351F080913C018D30FF
:104DF00030F490E08B5C9C4F0E94170C02C00E9424
:104E0000B60A80E00E94D60ACD28CE28CF28D9F055
:104E10006091C2017091C3018091C4019091C5015C
:104E200003E028E447EF0E945C0C87E191E00E94D8
:104E3000170C86E493E00E943E3823E046E464EFDA
:104E40000E94450D1AC080915D010E9472068091FA
:104E500020018E3F94F48FE291E00E94170C609144
:104E6000A9017091AA018091AB019091AC0103E07E
:104E700028E4409120010E945C0C8091BA0190913D
:104E8000BB01A091BC01B091BD01892B8A2B8B2B5A
:104E9000F1F080E00E94D60A6091BA017091BB01E6
:104EA0008091BC019091BD0104E028E440E00E94A3
:104EB0005C0C82E191E00E94170C23E040E26FEF6E
:104EC0008091C0019091C1010E94450D07C080E012
:104ED0000E94BC0A80913F01811102C00E94B60A63
:104EE000DF91CF910F91FF90EF90DF90CF900895D9
:104EF000EF92FF920F931F93CF93DF93182F0E948F
:104F0000360A80918B010E94FC0B8BE491E00E9499
:104F1000170C6DD360918B0180918C010E947B08EE
:104F2000EC019093880180938701E0908901F090D3
:104F30008A01CA3F8FEFD80720F489E091E00E94F0
:104F4000170C80918C010E94FC0B112359F0909159
:104F50003C018DE0891B0E94200A89E690E00E94B6
:104F6000170C02C00E94B60A0E943C0A60917F01A1
:104F700070918001809181019091820104E026E48A
:104F800040918E010E945C0CCA3FDF4F68F48AE3B7
:104F900091E00E94170C22E04DE16EEF80918701B5
:104FA000909188010E94450D0E94B60A0E94430A12
:104FB000E114F10469F083E391E00E94170C22E010
:104FC00045E26FEF8091890190918A010E94450D21
:104FD0000E94B60ACDB7DEB7E6E00C94D3378F70E7
:104FE00021F40E944A0A0C94691808958F3021F424
:104FF00090913601913011F08F5F089580E008950F
:10500000CF9384E790E0BAD76AE080E00E94290A53
:105010008FE393E00E94170CC0E00E94930E60E0C3
:1050200082E00E94D81F62E080E00E94D81F0E94A8
:10503000360A80917601882329F041E062E080E021
:105040009ADE12C084E790E00E94170C8FE393E091
:105050000E94170C0E943C0A8FE30E94B00B80E074
:105060000E94BC0A0E94B60A8C2FB9DF88EE93E03A
:105070000E94DE0D811109C080911301843028F453
:105080008C2FB4DFC82F8A3F40F20E946A0ACF916A
:1050900008950F931F93CF93DF93C0E0D8E012EFF2
:1050A0000DE00E94930E60E082E081DAD0931A0155
:1050B00080918D01843FE1F480917B0190917C018E
:1050C000A0917D01B0917E0184369105A105B105C5
:1050D00078F440E060E082E00E94E63260937B0179
:1050E00070937C0180937D0190937E0110938D01DC
:1050F00080918D01823FACF080938E0180917B0185
:1051000090917C01A0917D01B0917E0180937F01FF
:1051100090938001A0938101B093820181E0E8DE49
:105120001CC00E94360A8DE690E00E94170C809108
:105130003C01902F981B892F0E94200A89E690E05D
:105140000E94170C0E943C0A8FE30E94B00B0E9441
:10515000B60A0E94430A0E94B60A8C2F40DF88EEEE
:1051600093E00E94DE0D81110AC08091130184300A
:1051700030F48C2F3BDFC82F8A3F08F492CF0E9477
:105180006A0ADF91CF911F910F910895A4E1B0E0D9
:10519000ECECF8E20C94AB3782E080932001809134
:1051A0001A01813009F01FC280917601813009F027
:1051B0001AC200915D0124E0029FF0011124E25522
:1051C000FE4F80819181A281B381893032E59307BE
:1051D000A105B10508F007C24C0110E0802F123084
:1051E00028F40E946806582E492E03C00E946806C3
:1051F0002C01E42DF0E0E25BFD4F2490852D90E042
:10520000FC01E55BFD4FE49115B818B820EF82165C
:105210009104B0F410FD14C0A0901401B0901501D9
:1052200030E9A31A3AE1B30A21E030E0052C02C0CC
:10523000220F331F0A94E2F7C901822987B906C0F9
:10524000E4B927B8A0901401B0901501F4E13F2E05
:10525000852D0E944C073C01842D0E94530734E0A9
:105260006316710410F4049718F03A943110F0CFDB
:1052700080E480937B0094E590BF852D80648093CB
:105280007C0026E120937A00E12CF12C1092800022
:10529000109285001092840037E236BB0E940E0700
:1052A000812F8170382E10FD05C081E88093810028
:1052B00028B808C028B80E94170790E296BB81E87A
:1052C0008093810086B385FF12C018B810928100C8
:1052D00020E226BB20918600309187006901409131
:1052E0008400509185002417350770F014C080FFAA
:1052F000E9CF31E036BBA89597012F5F3F4F790189
:1053000020353105F9F6E1CF80FF05C081E086BB8D
:105310009FEFE91AF90A86E980937A00E4E12E2EDC
:10532000852D0E944C073C01842D0E94530724E0E8
:105330006216710410F4049718F02A942110F0CF2B
:105340004090390150903A01480C591C4A0C5B1CA2
:10535000209116013091170180E9A8168AE1B8065C
:10536000B0F491EEC916D104E104F10438F4C60199
:1053700065E070E00E942137645101C069E1285264
:105380003109261B310967FD339586E009C0C2014A
:1053900060EB76E30E94213787E0860F285D3F4F60
:1053A00090E0A0E0B0E08C159D05AE05BF0528F4A7
:1053B000C81AD90AEA0AFB0A03C0C12CD12C76010B
:1053C000332029F082E2C80ED11CE11CF11C90E5CB
:1053D000E916F10418F0C12CD12C76018BE0C81627
:1053E000D104E104F10428F091E0C91AD108E108E0
:1053F000F1084091300150913101612C712CA8EEDF
:10540000B3E00E948637698B7A8B8B8B9C8B9501DE
:10541000DA010E948637A30192010E94483744278F
:10542000552769897A898B899C890E944837C901E7
:105430000E945708FC01A3019201C701B6010E9416
:1054400006372B013C01CF01A0E0B0E073E0880FEC
:10545000991FAA1FBB1F7A95D1F7BC01CD016B5FC5
:105460007F4F8F4F9F4F2AE030E040E050E00E9496
:105470004837C301B2010E944837E12FF0E0A1E0B4
:10548000B0E0AC0FBD1F84E0189FA00DB11D11242A
:105490002D933D934D935C931397311016C09CE070
:1054A000C916D104E104F10480F03196EE0FFF1F1C
:1054B000EE0FFF1F81E090E08C0F9D1FE80FF91F9A
:1054C00020833183428353831F5FA8951F5F14306D
:1054D00008F484CE18B884E00E941C0791E00D8186
:1054E0001E812F81388549815A816B817C814017CB
:1054F00051076207730708F090E00D851E852F8520
:10550000388949855A856B857C8540175107620724
:10551000730710F483E001C082E0E92FF0E0EE0FA2
:10552000FF1FEE0FFF1F21E030E02C0F3D1FE20FA9
:10553000F31FD90134E0839FA00DB11D11240D91FB
:105540001D912D913C91408151816281738104179D
:1055500015072607370708F0892FE1E0F0E0EC0F88
:10556000FD1F94E0899FE00DF11D112440815181C0
:10557000628173814093A9015093AA016093AB01AA
:105580007093AC0180FD08C020EF8216910420F4D6
:105590008BEF8093200117C08CEF80932001CB010B
:1055A000BA016B5F7F4F8F4F9F4F2AE030E040E0A2
:1055B00050E00E9448372093A9013093AA014093FC
:1055C000AB015093AC018091A9019091AA01A091E7
:1055D000AB01B091AC01892B8A2B8B2B11F410926B
:1055E000200117B814B86496E2E10C94C737A0E024
:1055F000B0E0EDEFFAE20C94B1378091890190911F
:105600008A01892B09F09BC0E0918B01F0E0E25BFD
:10561000FD4FD491E0918C01F0E0E55BFD4FC4912A
:105620000E94012218B815B8D7B9C4B980918C016D
:105630000E9453078C01D0918E018CE08D0F843035
:1056400008F07DC080917F0190918001A09181013F
:10565000B0918201D15F2AE0822E912CA12CB12C35
:10566000BC01CD016B5F7F4F8F4F9F4FA501940110
:105670000E94483769017A01DA01C901DF5FD7303A
:1056800079F729E8C21623E1D206E104F10408F013
:1056900056C0059708F453C0C5B9C4B9C0E0D0E0FE
:1056A000CC15DD0520F40E9415072296F9CF14B819
:1056B00015B8A89585E080932C0180918C010E94FB
:1056C00053070817190720F4EC01C01BD10B02C0C7
:1056D000C0E0D0E0A12CB12CAC14BD0430F40E9489
:1056E00015078FEFA81AB80AF7CF80918C010E9496
:1056F000530729E120932C01A8950817190718F4DE
:10570000801B910B02C080E090E08C179D0788F40D
:105710009E01281B390B69F0A4EFB1E00E94863787
:105720009E0140E050E00E94483730938A01209368
:1057300089010E94012217B818B814B815B8CDB75E
:10574000DEB7ECE00C94CD378B3008F08B50811134
:1057500003C088E192E031C0813019F48FEE91E00E
:105760002CC0823019F484EE91E027C0833019F404
:105770008FE790E022C0843019F484E790E01DC0E8
:10578000853019F48DE690E018C0863019F484ED68
:1057900091E013C0873019F485EC91E00EC0883099
:1057A00019F48EEA91E009C0893019F486E092E09C
:1057B00004C08A3021F48BEF91E00E94170C0C9406
:1057C000B60A08950F93CF938FE790E0D7D3C0E048
:1057D00010921A0160E082E05BD480911A01883057
:1057E000C9F50E943C0A83E40E94B00B0E9429067E
:1057F00060917F017091800180918101909182017F
:1058000003E026E440918E010E945C0C0E94B60ADF
:1058100060918B0180918C010E947B08909388019C
:10582000809387010E94430A8BE391E00E94170C4A
:1058300080918701909188018A3F2FEF920730F481
:1058400022E04DE16EEF0E94450D08C08FE30E94FB
:10585000B00B04C00E94DD0A0E94430A0E94B60AEF
:105860008C2FBDDB88EE93E00E94DE0D81110AC013
:10587000809113018B3030F48C2FB8DBC82F8A3F16
:1058800008F4A6CFCF910F910895A4E0B0E0EBE427
:10589000FCE20C94AB378FEE91E070D380E1809303
:1058A000800010926F0081E090E0909389008093D7
:1058B000880010928B0010928A0083E086BB1092C1
:1058C000820088E08093810015B881E184B918B81E
:1058D00081E087B9229A89E080938100312C20E011
:1058E000FAE02F2E31E03B83812C912C54018394DC
:1058F00041E14C83832D90E00A966EE170E00E94B6
:1059000035376A83062F621781F00E94360A8FEEC0
:1059100091E00E94170C10E0101728F48EE20E940C
:10592000B00B1F5FF9CF0E94B60A5C815231B8F00C
:10593000C701B601A50194010E9448376B017C01A3
:105940008B81622D0E941537A92FB0E0A50194012B
:105950000E949B37C60ED71EE81EF91E0CC08B8115
:10596000622D0E941537A92FB0E0A50194010E9475
:105970009B376B017C010E943C0A8B81281209C075
:1059800081E09C81923108F480E08983811107C015
:1059900001C019822C81263120F082E503C08CE3FE
:1059A00001C08EE30E94B00B0E9425064C81C70106
:1059B000B6010E945A0DC701B6017E5E85489F4F11
:1059C000A7019601220F331F441F551F0E9448371D
:1059D000CA014F3F510539F030F08DE080938100CE
:1059E00080E094E01FC04034510530F08CE080939B
:1059F000810080E091E016C04830510530F08BE026
:105A00008093810080E490E00DC0892B31F09AE012
:105A10009093810088E090E005C089E08093810048
:105A200081E090E02C01612C712CCA01B901A30125
:105A300092010E9448372150310930938900209308
:105A400088008091880090918900892B31F421E0B1
:105A500030E030938900209388000E94B60A0E94AB
:105A6000430A86E60E94B00B0E942506009188003A
:105A70001091890060E079E08DE390E0A30192014C
:105A80000E944837A4E6B0E00E949B3798012F5F40
:105A90003F4F40E050E00E94483729013A01A4E618
:105AA000B0E0A70196010E949B37A3019201261B3B
:105AB000370B480B590BCA01B90105E228E44EEF38
:105AC0000E945C0C8AE70E94B00B0E94B60A80ED2F
:105AD00097E00E94DE0D811105C0809113018111B4
